:020000040800F2
:100000007805002001010008BD310008B531000865
:10001000B93100087D080008953200080000000092
:10002000000000000000000000000000893200080D
:100030008108000800000000C13100088D3200086E
:100040001B0100081B0100081B0100081B01000820
:100050001B0100081B0100081B0100081B01000810
:10006000850800081B0100081B0100081B0100088F
:100070001B0100081B0100081B0100081B010008F0
:100080001B0100081B0100081B0100081B010008E0
:100090001B0100081B0100081B0100081B010008D0
:1000A0001B0100081B0100081B0100081B010008C0
:1000B0001B0100081B0100081B0100081B010008B0
:1000C0001B0100081B0100081B0100081B010008A0
:1000D0001B0100081B0100081B0100081B01000890
:1000E0001B0100081B0100081B010008DFF80CD0F1
:1000F00000F0FAFA00480047B934000878050020FB
:100100000648804706480047FEE7FEE7FEE7FEE7B1
:10011000FEE7FEE7FEE7FEE7FEE7FEE791320008B6
:10012000ED0000082DE9FE4F81EA030404F00044CD
:1001300021F0004100944FF0000B23F0004350EAFF
:1001400001045ED052EA03045BD0C3F30A54C1F346
:100150000A552C44A4F2F3340194A0FB0254C1F3D9
:10016000130141F48011C3F3130343F4801301FB23
:10017000024400FB034E840A970A44EA815447EA8A
:100180008357A4FB076802958D0A05FB07854FEA94
:10019000932C04FB0C542705029D4FEA065847EAAE
:1001A0001637B5EB08056EEB070C870E920E47EA83
:1001B000811742EA8312A7FB0201B6EB0B0164EB45
:1001C00000042B0D43EA0C335E1844EB1C50DA4656
:1001D0005146E7FB0201C5F313044FEA0B3343EA30
:1001E00014534FEA0432019C43EA0603A4F10C04C1
:1001F0000294009CCDE900B400F050F903B0BDE8D2
:10020000F08F00200146F9E72DE9F04D81EA030463
:1002100004F0004B21F0004514464FF0000A23F093
:10022000004150EA050220D054EA01021DD0C5F376
:100230000A570246C5F31303C1F31300C1F30A566C
:1002400040F4801543F48013A7EB0608101BD64634
:1002500008F2FD3873EB050002D308F1010801E054
:1002600092185B41B8F1000F03DA00200146BDE8A7
:10027000F08D00204FF48011064684460EE0171BD7
:1002800073EB050705D3121B63EB050306434CEA2A
:10029000010C49084FEA300092185B4150EA01070F
:1002A000EDD152EA030012D082EA040083EA05018C
:1002B000084305D0101BAB4106D20122002306E003
:1002C00000224FF0004302E06FF0010253101AEBDE
:1002D00006004CEB085110EB0A0041EB0B01BDE8A6
:1002E000F04D00F0CCB8002801DBC0F1004000293F
:1002F00001DBC1F10041814201D2012070470020A1
:1003000070470EB5C10F80EAE0700844CA070021AB
:1003100040F233438DE80E000A460B4600F0BEF86B
:1003200003B000BD00F0004230F000400AD0C10D23
:1003300001F56071C0F3160042EA0151C20840079E
:100340001143704700200146704701F0004330B46C
:1003500021F0004150EA010206D00A0DA2F56072B8
:10036000C1F31301002A02DC30BC00207047440FA7
:1003700044EAC104C100E01830BC00EBC25000F0F8
:1003800047B830B50B46014600202022012409E081
:1003900021FA02F59D4205D303FA02F5491B04FA3E
:1003A00002F52844151EA2F10102F1DC30BD2DE951
:1003B000F05F0546002092469B46884606468146E9
:1003C00040241BE0284641464746224600F0ADF94E
:1003D00053465A46C01A914110D311461846224638
:1003E00000F094F92D1A67EB01084F4622460120D0
:1003F000002100F08BF917EB00094E41201EA4F1FB
:100400000104DFDC484631462A464346BDE8F09FFA
:100410000029A8BF7047401C490008BF20F0010018
:10042000704710B4B0FA80FC00FA0CF050EA0104F6
:1004300004BF10BC704749B1CCF1200421FA04F488
:1004400011FA0CF118BF012121430843A3EB0C0161
:10045000CB1D4FEA00614FEA102042BF002010BCC4
:10046000704700EBC35010440029A4BF10BC704774
:10047000401C490008BF20F0010010BC704710B5B7
:10048000141E73F1000408DA401C41F100019218B7
:100490005B411A4301D120F0010010BD2DE9F04D60
:1004A00092469B4611B1B1FA81F202E0B0FA80F2B5
:1004B0002032904600F02AF904460F4640EA0A002E
:1004C00041EA0B0153465A46084313D0114653EAFA
:1004D000010019D0C8F14002504600F026F9054647
:1004E0000E4650465946424600F010F9084305D0E2
:1004F000012004E020463946BDE8F08D0020054388
:1005000046EAE0762C4337430A986305E40AA0EBF9
:1005100008000022FD0A44EA47540A3002D50020B0
:100520000146E9E7010510196941DDE908450019AF
:100530006941BDE8F04DA2E72DE9FE4F804681EA12
:100540000300C00F0C46009021F0004123F000454D
:10055000B8EB0200A94105D24046214690461C4610
:100560000B46024623F00040104347D0270DC7F347
:100570000A00C3F30A510290401A019040286BDA36
:10058000C3F3130040F4801B0098924620B100236F
:10059000D2EB030A63EB0B0B01985946C0F1400202
:1005A000504600F0B3F806460D4650465946019AAB
:1005B00000F0CBF810EB08006141002487EA1152EB
:1005C00084EAE7731A4340D0009A62B3019A012A81
:1005D0004FEA075215DC001B61EB02014FF00042AD
:1005E00002EA0752CDE90042001C41F58011324673
:1005F0002B46FFF753FF03B0BDE8F08F404621467E
:10060000F9E7001B61EB0201001C41F580130018A3
:100610005B412018A2F5001747EB030140EAD570B3
:10062000B6196D4111E06D084FEA360645EAC0750E
:100630004FEA0752001B61EB0201001C41F58011DB
:1006400049084FEA30000019514132462B4603B0A9
:10065000BDE8F04FFFF713BF0098012240000023D0
:10066000D0EB020263EBE073009821464FEAE0749E
:10067000B8EB000061EB0401E9E783F000435BE7BE
:1006800081F0004158E7C1F30A52C1F3130140F26F
:10069000FF3341F480119A4202DA0020014670478C
:1006A00040F233439A42A2F2334202DC524200F05B
:1006B0003CB800F02BB8000030B5041E71F1000406
:1006C00004DB4FF00044404264EB0101141E73F15F
:1006D000000405DB1C464FF00043524263EB040369
:1006E000994208BF904230BD064C074D06E0E068D5
:1006F00040F0010394E8070098471034AC42F6D369
:10070000FFF7F8FCEC4100080C420008202A04DB4B
:10071000203A00FA02F1002070479140C2F1200314
:1007200020FA03F3194390407047202A04DB203A53
:1007300021FA02F00021704721FA02F3D040C2F101
:1007400020029140084319467047202A06DBCB1748
:10075000203A41FA02F043EAE07306E041FA02F37C
:10076000D040C2F120029140084319467047000072
:10077000B0B5044600688168C90709D0816821F0D6
:100780000101816000F0CAFD21688968C90701D1B3
:100790000020B0BD054602E08068C007F8D000F038
:1007A000BDFD411B20680329F6D38168C907F3D03A
:1007B000A06A40F01000A062E06A40F00100E06230
:1007C0000120B0BDB0B582B0044600200190216880
:1007D0008A68D2074FD1886840F00100886040F2F3
:1007E0000800C2F2000000684DF68361C4F21B31BC
:1007F000A0FB0101880C01900198A0B1019801387B
:100800000190019878B1019801380190019850B198
:10081000019801380190019828B1019801380190A0
:1008200001980028EAD100F079FD21688968C9079C
:100830001CD1054603E000BF8068C0071AD100F054
:100840006DFD411B20680329F6D38168C907F3D1E8
:10085000A06A40F01000A062E06A40F00100E0628F
:10086000002084F82400012002B0B0BD002002B0B6
:10087000B0BD00BF002002B0B0BD0000FEE7000028
:1008800070470000042000F033BC000070B582B057
:1008900004460020019094F82400012804D1022588
:1008A000284602B070BD00BF012084F82400204615
:1008B000FFF75EFF054600286CD1A06A41F20211E5
:1008C00088430230A06240F20800C2F200000668CD
:1008D000022001F0D7FCB6FBF0F040000190019837
:1008E000A8B100BF019801380190019878B1019832
:1008F00001380190019850B1019801380190019898
:1009000028B101980138019001980028EAD12046C9
:10091000FFF758FF2068816841F00801816000F00E
:10092000FDFC21688A6812070ED4886840F0040034
:10093000886000F0F3FC21688968490714D401201D
:100940006FF0030122E000BF064602E0886800075E
:10095000EBD500F0E3FC801B21680B28F6D38868F8
:100960000007F3D50EE000BF064602E080684007AE
:10097000E5D500F0D3FC811B20680B29F6D38168F4
:100980004907F3D5012510206FF01201A26A11402A
:100990000843A062002084F82400284602B070BDFD
:1009A00010B581B00022009290F82420012A03D1D2
:1009B0000221084601B010BD4B680122062B80F8C9
:1009C000242015D8026803EB8303A3F1050E1F232F
:1009D000D2F834C003FA0EF40B682CEA040C03FAC4
:1009E0000EF444EA0C045463092B17D937E000BF16
:1009F00002680C2B20D803EB8303A3F123041F23ED
:100A0000D2F830C003FA04FE0B682CEA0E0C03FA8D
:100A100004F444EA0C041463092B20D8D2F810C063
:100A200003EB4303072489689C402CEA04049940A3
:100A300021431161002136E003EB8303A3F141045C
:100A40001F23D2F82CC003FA04FE0B682CEA0E0C0C
:100A500003FA04F444EA0C04D462092BDED903EB54
:100A60004304D2F80CC0A4F11E0E0724896804FACE
:100A70000EF42CEA040401FA0EF1214323F00104E0
:100A8000102CD1600ED142F20841C4F20101A1F153
:100A90000804A2420ED0816A41F020018162012146
:100AA00001E000BF0021002280F82420084601B0A8
:100AB00010BD00BF0A68120230D40A68102B42F43D
:100AC00000020A602CD140F20801C2F2000109685C
:100AD0004DF68362C4F21B32A1FB0212910C01EBB2
:100AE0008101490000910099E1B10099013900911B
:100AF0000099C9B10099013900910099B1B10099EB
:100B000001390091009999B100990139009100993A
:100B100000294FF00001E8D1C5E700BF0021C2E77E
:100B20000021C0E70021BEE70021BCE70021BAE7B1
:100B30000021B8E70068C06C70470000B0B500281D
:100B400000F0A8800446806A20B121688868C00748
:100B50000BD114E00020E06284F82400204600F06D
:100B60009BF821688868C00709D0886820F00100D8
:100B7000886000F0D3FB21688A68D20726D1A06A7A
:100B8000C0063AD4A06A41F2021290430230A06239
:100B9000E069D4E9013240EA030C531EB3FA83F34F
:100BA0005D091346B2F5807F18BF2B02207D257B9F
:100BB00001284CEA450030D135B3A56A45F020053F
:100BC000A562E56A45F00105E56226E0054602E01A
:100BD0008868C007D3D000F0A1FB401B2168032820
:100BE000F6D38868C007F3D0A06A40F01000A06276
:100BF000E06A40F00100E062A06AA06A40F01000E4
:100C0000A0620120B0BD00BFD4F818C04EF60005A8
:100C1000CFF6FF7505EB4C352B434D68B2F5807F61
:100C200025F4694543EA05034B608B684FF2FD7577
:100C3000CFF6E17503EA050343EA00038B6001D0B8
:100C4000012A07D122690023CFF6F07303EB025289
:100C500001E000BF0022CB6A23F470031A43CA628A
:100C6000896840F6FE62CFF61F721140814207D1BB
:100C70000020E062A16A012262F30101A162B0BD1D
:100C8000A06A40F0100020F00200A062E06A40F08C
:100C90000100E0620120B0BD80B586B0014640F69B
:100CA0000000C4F20100096800F5E05291424FF0E3
:100CB0000001CDE9041101D006B080BD41F2180158
:100CC000C4F202010A6842F400720A600A6802F47F
:100CD00000720192019A0A6842F004020A600968EF
:100CE00001F00401019101990321CDE9021102A94A
:100CF00000F00AFA06B080BDF0B581B000270D46BD
:100D00000446009700F00AFB21688A68D20543D4A4
:100D100006464868C00503D4C86A10F4700F45D071
:100D200040F20800C2F200000768022001F0AAFAAF
:100D3000216844F624130A69B7FBF0F0C2F292432B
:100D40001A4206D1CA6844F62413C0F292031A422A
:100D50005ED00A6942F29243C1F249231A4207D196
:100D6000CA6842F29243C0F249031A4200F0C080BE
:100D70000A6949F24923C0F224031A424FF0FC02E7
:100D800057D1CF681F4208BF5422009B02FB00F7D7
:100D9000BB4253D3C3E000BFA06A40F02000A06272
:100DA00084F82470012001B0F0BD00BF08688007FE
:100DB00000F1B580681C00F0A880FDB908688007C4
:100DC00072D50868800700F1AA80086880076BD593
:100DD0000868800700F1A3800868800764D5086868
:100DE000800700F19C80086880075DD5086880074F
:100DF000E4D594E00868800700F1918000F08EFA55
:100E0000801B2168A842F5D908688007F2D44BE01E
:100E10000A6942F29243C1F249231A424FF0290271
:100E200007D1CB6842F29247C0F249073B4208BF64
:100E30001422009B02FB00F7BB4270D2681C4FD00B
:100E400055BB0098B8422FD300980130009000980D
:100E5000B84264D20098B84226D30098013000907E
:100E60000098B8425BD20098B8421DD30098013078
:100E700000900098B84252D20098B84214D300981B
:100E8000013000900098B842DBD348E00098013070
:100E900000900098B84233D200F040FA801BA8427C
:100EA000F4D90098B842F1D2A06A40F00400A062E0
:100EB000002084F82400032001B0F0BD0098013028
:100EC00000900098B8422AD2009801300090009813
:100ED000B84224D20098013000900098B8421ED247
:100EE0000098013000900098B842E7D317E000BFA7
:100EF0005422009B02FB00F7BB429FD30FE000BFD0
:100F000021680CE00868800709D40868800706D4C7
:100F1000086880075CBF08685FEA8070F2D56FF0F0
:100F200012000860A06A40F40070A062886800F4B3
:100F30006020B0F5602F01D1207B18B1002001B0F6
:100F4000F0BD00BFA06A20F48070A062A06AC00457
:100F5000F4D4A06A40F00100A062002001B0F0BD0E
:100F600010B5044690F82400012804BF022010BDEB
:100F7000012084F824002046FFF724FC20B1002142
:100F800084F8241010BD00BF42F2044C2068A16A0E
:100F9000C4F2010C40F2013291430CF57F7201F56D
:100FA00080719042A16233D0A16A21F48011A162C4
:100FB0004168490504D5A16A012363F30D31A1629B
:100FC000A16A0023C9044FF0000144BFE16A21F087
:100FD0000601E1626FF0020184F82430016081684B
:100FE00001F46021B1F5602F06D190420AD1DCF8FE
:100FF000001011F4702F05D0816841F480118160D8
:10100000002010BD816841F4A0018160002010BD66
:10101000DCF8001011F4702FC6D0A16A41F48011E1
:10102000A162DCF800104905C5D4C9E7B0B5044693
:1010300090F82400012804BF0220B0BD01212068DF
:1010400084F824108168C90709D0816821F0010162
:10105000816000F063F921688968C9070ED12146D3
:1010600051F8280F41F2011220EA0202002042F05A
:1010700001020A60002184F82410B0BD054602E098
:101080008068C007EBD000F049F9411B20680329B4
:10109000F6D38168C907F3D0A06A214640F010005A
:1010A000A06251F82C2F0120E1E70000B0B5044602
:1010B00000F034F9054640F20000C2F2000000786A
:1010C000611C18BF044400BF00F028F9401BA04277
:1010D000FAD3B0BD042808D140F22810C2F20000B3
:1010E00000684FF47A71C163C1633220FFF7DEBF3D
:1010F00040F21441C4F201010A68024214BF0860C0
:101100007047FFF7E7BF00002DE9F04F82B041F2D2
:101110000042C4F201020E680423904208BF032378
:10112000002E009300F0F68040F20C4E4FF6FF7C4C
:10113000C4F2010E00220124C1F2100C4FF0000A8B
:101140004FF0000943E000BF012502F00C040F2717
:10115000A7402BEA070705FA04F43C4343F826406E
:10116000D1F804B040F20045C4F201055FEACB3388
:101170002B6854BF23EA080343EA08032B606B681B
:101180005FEA8B3454BF23EA080343EA08036B6029
:101190005FEACB24AB6854BF23EA080343EA0803A1
:1011A0005FEA8B24AB60DEF800304FF0010454BFDF
:1011B00023EA080343EA0803CEF800300E680AF178
:1011C000010A36FA0AF302F1040200F0A38004FADD
:1011D0000AF816EA080FF1D04B68634512DC122BAF
:1011E00056D8DFE803F0350B45495555555555554B
:1011F000555555555555554D510000BFD1F80C90DA
:1012000046E000BF4FF6FF77C1F22107BB420FDC7B
:101210000027C1F21107BB421AD00027C1F2120702
:10122000BB4215D00027C1F22107BB4210D02FE0EE
:101230000027C1F22207BB420AD00027C1F23107C2
:10124000BB4205D00027C1F23207BB4220D100BF0C
:101250008B684BB1012B14BFC0F81480C0F810800C
:101260004FF0080914E000BF4FF0040910E000BF80
:10127000CB6803F108090BE04FF0000908E000BF5C
:10128000CB6803F1040903E0CB6803F10C0900BF4C
:1012900013460546BAF1080F24BF203B04352E68DB
:1012A0000F279F40BE4309FA03F333432B60CB79EA
:1012B000DB067FF583AF41F21804C4F20204236811
:1012C0004FEA9A0643F001032360236840F60004C6
:1012D00003F001030193019B40F20043C4F20103B8
:1012E000A3F57E7353F826B0C4F20104A0420FD0D8
:1012F00040F60044C4F20104A0423FF425AF41F29D
:101300000004C4F20104009DA04208BF02251CE7AE
:1013100000251AE702B0BDE8F08F000040F270101F
:10132000C2F200000068704770B5B8B3044690F888
:101330003D0028B9002084F83C00204600F05CFE07
:10134000242084F83D002068016821F0010101603B
:10135000016841F400410160016821F4004101602D
:1013600001F06EF948F28041C0F21E0140F6001310
:10137000D4F804E088424FF00001C0F23D0348F287
:10138000A16C4FF0000238BF01219842C0F2010C5D
:1013900038BF0122E64538BF0A460AB1012070BDB8
:1013A0004DF68361C4F21B31A0FB01122168950C3C
:1013B0004B684FF4967623F03F0343EA924375431C
:1013C00044F6D3564B60C1F262060B6AA5FB065683
:1013D000B50923F03F03E64538BF950C6A1C1A4354
:1013E0000A62CA6948F2A0664CF6FF73C0F20106B1
:1013F000B64522EA03020BD801384FEA4E03B0FB90
:10140000F3F001306FF31F30042898BF04201EE072
:10141000A368013863B119230EFB03F3B0FBF3F0AB
:1014200001306FF31F3078B100F5804008E000BF55
:101430000EEB4E03B0FBF3F001306FF31F3028B119
:1014400000F5004003E000BF012000E00120104350
:10145000C8610868D4E9072320F0C000104318438E
:101460000860886848F2FF3204F10C0690434CCEC5
:1014700018431043A5698860C86820F0FF00304316
:101480002843C860086840F001000860002020215F
:10149000206484F83D10206384F83E0070BD000095
:1014A0002DE9F04782B0044600201F4616468846C4
:1014B0000090FFF733FF94F83D1020291CD105461A
:1014C00020688169890713D5FFF728FF401B192879
:1014D000F6D900202021206384F83D1084F83E00D6
:1014E000216C41F02001216484F83C0004E000BF3D
:1014F00094F83C10012903D1022002B0BDE8F08726
:10150000012184F83C100168C90703D1016841F04A
:1015100001010160016821F400610160222184F869
:101520003D10102184F83E10002121646662678519
:10153000618D21850021CFF6FF71E162E16A0268C9
:1015400011F5803F42F48062026018BF012919D171
:10155000016841F48071016041690A9EC90724D184
:10156000711C18D0002E00F0CB8000BFFFF7D6FE14
:10157000401BB04200F2C68020684169C907F5D01F
:1015800013E000BF0829E3D0216B1129E0D0E3E785
:101590004169C90709D14169C90706D14169C9072C
:1015A00004BF41695FEAC171F2D02169B1F5804F92
:1015B00008D148F00101C9B201614169890740F1D0
:1015C000CC8003E1062101EAD81707F1F00101619F
:1015D0004169090738D44169721C01F4806113D054
:1015E000002940F0EA80002E00F06A82FFF796FEA4
:1015F000401BB04200F2668220684169090723D48B
:1016000041694905F2D5D8E0002940F0D68041690A
:10161000090719D44169490500F1CF8041690907DB
:1016200012D44169490500F1C880416909070BD40A
:101630004169490500F1C1804169090704D4416944
:101640004905E4D5B9E000BF5FFA88F1016141695D
:10165000890739D44169721C01F4806114D00029D2
:1016600040F0AB80002E00F02B82FFF757FE401BAE
:10167000B04200F2278220684169890724D4416979
:101680004905F2D599E000BF002940F096804169F4
:10169000890719D44169490500F18F80416989079B
:1016A00012D44169490500F18880416989070BD44A
:1016B0004169490500F181804169890704D4416984
:1016C0004905E4D579E000BF00210191416901910C
:1016D000816901910199016841F48071016041695A
:1016E000C90734D1711C28D056B1FFF717FE401B33
:1016F000B04207D820684169C907F6D027E000BF8B
:10170000FFF70CFE00202021206384F83D1084F8B0
:101710003E00216C41F020012164216884F83C00E6
:101720000868C00544BF4FF400702064012002B077
:10173000BDE8F0874169C90709D14169C90706D1E8
:101740004169C90704BF41695FEAC171F2D047F03E
:10175000F10101614169890738D44169721C01F4C2
:10176000806111D049BB002E00F0AA81FFF7D6FDA1
:10177000401BB04200F2A68120684169890725D448
:1017800041694905F2D518E0B9B9416989071DD405
:101790004169490511D44169890717D4416949054F
:1017A0000BD44169890711D44169490505D44169C0
:1017B00089070BD441694905E7D5016841F40071F7
:1017C00001606FF48061416104207CE1218D022978
:1017D00010D0012924D0002938D10021019141697C
:1017E0000191816901910199016841F400710160E1
:1017F00037E000BF016841F400610160EFF3108041
:1018000072B60020019020684169019181690191BF
:101810000199016821F48061016062B621E000BF96
:10182000016821F480610160EFF3108072B600203E
:1018300001902068416901918169019101990168D4
:1018400041F40071016062B60BE000BF016841F431
:1018500080610160002101914169019180690190DD
:101860000198208D002800F01F8140F208084BF2FB
:101870008959771CC2F20008C1F2F8494FF0230AD7
:1018800080B2032818D8022840D0012868D1002E41
:1018900000F0D6802068014651F8142F520600F15E
:1018A000D3800868C00600F14381FFF737FD401B75
:1018B000B042EFD931E100BF86B100BF20680146D8
:1018C00051F8142F52060ED40868C00600F130817A
:1018D000FFF724FD401BB042F0D91EE120684169AA
:1018E000490640F113810069616A0870606A2268E4
:1018F000411C208D616201382085638D013B638529
:1019000053695B0740F1AC8010699FE02068416932
:1019100049070FD4002F00F0A780002E00F01C8193
:10192000FFF7FCFC401BB04200F2188120684069C0
:101930004007F5D5EFF3108072B62068616A02683F
:1019400042F40072026000690870606A218D013003
:101950006062481E2085608D0138608562B66AE04D
:101960002068416949070FD4002F00F08D80002EB8
:1019700000F0F280FFF7D2FC401BB04200F2EE8094
:10198000206841694907F5D5016821F4806101604B
:10199000EFF3108072B62068616A00690870606AAF
:1019A000218D0130013960622185618D01396185A8
:1019B000D8F80010C908A1FB0912110A01FB0AF1AD
:1019C00000910099013900910099002900F08C8064
:1019D00021684A6952071ED4009901390091009983
:1019E000002900F0818021684A69520713D40099C8
:1019F000013900910099002976D021684A6952077F
:101A000009D4009901390091009900296CD021680E
:101A10004A695207D5D50A6842F400720A6009691A
:101A20000170606A218D01306062481E2085608DE2
:101A30000138608562B62068616A006906E000BF0F
:101A400020684169490661D50069616A0870606A69
:101A5000218D01306062481E2085618D01396185CC
:101A600001047FF40DAF1FE0416949073FF562AF04
:101A7000416949075CBF41695FEA41713FF55AAF6F
:101A800041694907F0D555E7416949073FF57CAF02
:101A9000416949075CBF41695FEA41713FF574AF35
:101AA00041694907F0D56FE7202084F83D00002008
:101AB00084F83E0084F83C0002B0BDE8F08700BF27
:101AC000FFF72CFC202000212022216384F83D20F8
:101AD00084F83E10226C1043206484F83C100120EE
:101AE00002B0BDE8F08700BF00202021206384F809
:101AF0003D1084F83E00216C41F02001216462B663
:101B000084F83C00012002B0BDE8F08750F8141FB3
:101B1000C90601460CD4FFF701FC002020212063F8
:101B200084F83D1084F83E00206C40F020000AE06C
:101B30006FF01000086000202021206384F83D1021
:101B400084F83E00206C2064002084F83C000120D2
:101B500002B0BDE8F08700BFFFF7E0FB00202021C6
:101B6000206384F83D1084F83E00216C41F0200190
:101B7000216484F83C00012002B0BDE8F087000039
:101B80002DE9F04381B01F46164688460446FFF70C
:101B9000C5FB94F83D10202920D1054620688169B5
:101BA000890717D5FFF7BAFB401B1928F6D9002083
:101BB0002021206384F83D1084F83E00216C022629
:101BC00041F02001216484F83C00304601B0BDE8BA
:101BD000F08300BF94F83C10012905D1022630465D
:101BE00001B0BDE8F08300BF012184F83C1001681A
:101BF000C90703D1016841F001010160016821F4C6
:101C000000610160212184F83D10102184F83E100C
:101C10000021216466626785618D21850021CFF6F0
:101C2000FF71E162E16A11F5803F18BF012919D106
:101C3000016841F4807101604169DDF82090C907B5
:101C400023D119F1010116D0B9F1000F46D000BF20
:101C5000FFF764FB401B484542D820684169C9072B
:101C6000F6D012E00829E3D0216B1229E0D0E3E797
:101C70004169C90709D14169C90706D14169C90745
:101C800004BF41695FEAC171F2D02169B1F5804FAB
:101C900002D1FE2161E000BF062101EAD811F03136
:101CA00001614169090757D4416919F1010201F441
:101CB00080612FD0002946D1B9F1000F00F0428198
:101CC000FFF72CFB401B484500F23E81206841692C
:101CD000090741D441694905F2D534E0FFF71EFBFD
:101CE00000202021206384F83D1084F83E00216C00
:101CF000012641F020012164216884F83C00086835
:101D0000C00544BF4FF400702064304601B0BDE808
:101D1000F08300BFB9B9416909071DD4416949057C
:101D200011D44169090717D4416949050BD44169A8
:101D3000090711D44169490505D4416909070BD444
:101D400041694905E7D5016841F4007101606FF40C
:101D5000806141610420F8E0FF2101EA080101618E
:101D6000416989073AD4416919F1010201F480619E
:101D700012D051BBB9F1000F00F0E080FFF7CEFAAE
:101D8000401B484500F2DC8020684169890725D462
:101D900041694905F2D518E0B9B9416989071DD4EF
:101DA0004169490511D44169890717D44169490539
:101DB0000BD44169890711D44169490505D44169AA
:101DC00089070BD441694905E7D5016841F40071E1
:101DD00001606FF4806141610420B6E00026009646
:101DE00041690091816900910099218D002900F0DD
:101DF000958009F10108014651F8142F120635D4D7
:101E0000B8F1000F16D0B9F1000F00F0AF8000BF9D
:101E10000868400500F1B280FFF780FA401B484592
:101E200000F2A9802068014651F8142F1206EFD560
:101E30001CE000BF0A68520500F1A0800A68120683
:101E400014D40A68520500F199800A6812060DD46C
:101E50000A68520500F192800A68120606D40A68E0
:101E6000520500F18B800A681206E3D5636A1946B1
:101E700011F8012B02616162618D01396185278D45
:101E80000146A7F1010CA4F828C051F8142F5207FD
:101E90000DD55FEA0C420AD05A78A7F1020C026114
:101EA0009A1C6262628D013A6285A4F828C00A68B1
:101EB00052072FD4B8F1000F14D0B9F1000F7BD026
:101EC0000868400500F18080FFF728FA401B48456C
:101ED00077D82068014651F8142F5207F0D5B4F88E
:101EE00028C017E00A6852056ED40A68520711D458
:101EF0000A68520568D40A6852070BD40A6852056A
:101F000062D40A68520705D40A6852055CD40A688C
:101F10005207E7D55FEA0C417FF46DAF016841F4E9
:101F200000710160202084F83D0084F83E6084F850
:101F30003C60304601B0BDE8F08300BFFFF7EEF92A
:101F4000202002E0FFF7EAF920200021202221636F
:101F500084F83D2084F83E10226C01261043206452
:101F600084F83C10304601B0BDE8F08308684005B5
:101F700004D4FFF7D3F9202004E000BF6FF48060A1
:101F80000860042000212022216384F83D2084F889
:101F90003E10226C1043206484F83C10206C04280E
:101FA00025D120680126016841F4007101603046A6
:101FB00001B0BDE8F08300BF0868400504D4FFF716
:101FC000ADF9202004E000BF6FF4806008600420B9
:101FD00000212022216384F83D2084F83E10226CE9
:101FE0001043206484F83C10206C0428D9D00126CA
:101FF000304601B0BDE8F08310B586B0006845F604
:102000000001C4F2000188424FF00001CDE9041143
:10201000CDE902112AD045F20041C4F20001884204
:1020200048D141F21804C4F20204206802A940F029
:1020300008002060206800F0080001900198C0208E
:102040000290122003900320059040F60040C4F255
:102050000100FFF759F8606840F4001060606068A4
:1020600000F400100190019806B010BD41F2180470
:10207000C4F20204206802A940F008002060206831
:1020800000F00800019001984FF440600290122087
:1020900003900320059040F60040C4F20100FFF7D2
:1020A00033F8606840F480006060606800F480008D
:1020B0000190019806B010BDB0B538B30446006871
:1020C000D4E901124CF6CC43036045F2555303604A
:1020D00041608260FFF722F92168CA6892070FD039
:1020E000054602E0C86880070AD0FFF717F9401BD1
:1020F00021682828F6D3C8688007F3D00320B0BD34
:102100004AF6AA2008600020B0BD00BF0120B0BD83
:1021100001684AF6AA2200200A60704740F20000D7
:1021200040F27011C2F20000C2F2000100780A68A9
:10213000104408607047000080B542F20000C4F20D
:102140000200016841F010010160032000F08AF8EC
:10215000002000F005F800F027F8002080BD000006
:1021600070B540F20006C2F2000640F20801327873
:10217000C2F200014FF47A730968B3FBF2F204462D
:10218000B1FBF2F1084600F05DFC0F2C4FF00105A9
:1021900008D838B94FF0FF3021460022002500F062
:1021A00035F87460284670BD82B041F21800C4F260
:1021B00002000168022241F001010160016801F0A2
:1021C000010101910199416841F0805141604068ED
:1021D00000F08050009000980420C4F201000168D3
:1021E00062F31A61016002B070470000002848BF26
:1021F000704700F01F01012202FA01F14EF20012B5
:102200004009CEF2000242F82010704710B54EF699
:102210000C5CCEF2000CDCF80030C3F3022E8EF022
:102220000704042C28BF0424BEF103034FF0FF3E33
:102230000EFA04F438BF0023A14399400EFA03F3C9
:102240009A43114300F00F02043A624409010C3230
:1022500000F16043B0F1FF3FC8BF03F56442117065
:1022600010BD00004EF60C51CEF200010A684FF688
:10227000FF031A4060F30A2242F0806040F0FD70D4
:102280000860704780B5012818D0022836D0102881
:1022900032D141F20401C4F202010A6851F8040C7F
:1022A000C00129D5C2F383402DA3185CD2033DD4CD
:1022B00040F60012C0F23D02504343E041F20400F8
:1022C000C4F20200C16940F202320A40B2F5817FD5
:1022D00004BF4FF4004080BD01F44071B1F5407F70
:1022E0001CD0B1F5007F07D1006A49F64041800754
:1022F00001EAE07080BD00BF002080BD00F0B4F9AD
:1023000041F20401C4F2020109680222C1F38131E1
:1023100002EB4101B0FBF1F080BD00BF50F8040CAE
:102320004FF22441800301EAE07080BD0A6810A3E7
:10233000C2F340429A5C41F20023C0F27A03B3FB3D
:10234000F2F250430968490248BF80BD4AF6AB210A
:102350004000CAF6AA21A0FB0101480880BD00BFC9
:1023600002030405060708090A0B0C0D0E0F1010D6
:10237000010200002DE9F04182B00446007841F2EC
:102380001C06C007C4F202064AD0306810F080581C
:1023900008D1306840F080503060306800F08050E4
:1023A0000190019847F20007C4F200073868C005A1
:1023B00012D4386840F480703860FEF7AFFF0546ED
:1023C0003868C00508D4FEF7A9FF401B6428F7D978
:1023D000032002B0BDE8F081706810F4407012D0A4
:1023E000616801F4407188420DD0706840F240424B
:1023F000C4F24222012320F4407113600023C0077D
:10240000136071602AD17068616820F440700843DD
:10241000B8F1000F706003D1306820F08050306058
:102420002068810707D556F8181CA26821F440419E
:10243000114346F8181CC00604D4002002B0BDE8C1
:10244000F08100BF56F8180CE16820F480000843C2
:1024500046F8180C002002B0BDE8F081FEF75EFFE0
:10246000054641F2883700BF70688007CBD4FEF77D
:1024700055FF401BB8424FF00300F5D9EBE70000D1
:102480002DE9F04381B0002800F0858042F2000879
:10249000C4F202080446D8F800000D4600F0070018
:1024A00088420CD2D8F8000020F007002843C8F872
:1024B0000000D8F8000000F00700A8426BD12068A7
:1024C00041F204098107C4F2020917D5410705D575
:1024D000D9F8001041F4E061C9F80010010705D5F2
:1024E000D9F8001041F46051C9F80010D9F8001073
:1024F000A26821F0F0011143C9F80010C00741D1D2
:10250000D8F8000000F00700A8420CD9D8F8000065
:1025100020F007002843C8F80000D8F8000000F0B9
:102520000700A84237D12068410707D5D9F8001025
:10253000E26821F4E0611143C9F80010000708D5F2
:10254000D9F80000216920F4605040EAC100C9F8C0
:102550000000D9F8002002F00C00082841F2002009
:10256000C0F27A0050D144F2DA13C2F38341C0F6CC
:102570000003595CD2033BD440F60010C0F23D008A
:10258000484341E0606802280AD001282AD159F85E
:10259000041C890308D4012001B0BDE8F08300BF0A
:1025A00059F8041C8901F6D5D9F8001021F003016F
:1025B0000843C9F80000FEF7B1FE064641F288372D
:1025C000D9F80000616800F00C00B0EB810F97D0E3
:1025D000FEF7A4FE801BB842F2D9032001B0BDE88B
:1025E000F08300BF59F8041C8907D4D5DCE700BF8D
:1025F000D9F8002044F2C013C2F34042C0F60003F1
:102600009A5C4843B0FBF2F0D9F8001044F2C212D1
:10261000C1F30311C0F60002515C40F2080220FA37
:1026200001F140F20400C2F200000068C2F20002B0
:102630001160FFF795FD002001B0BDE8F0830000B8
:1026400040F2080041F20401C2F20000C4F20201AB
:102650000068096844F2D212C1F30221C0F60002F8
:10266000515CC8407047000040F2080041F204018C
:10267000C2F20000C4F202010068096844F2D212FA
:10268000C1F3C221C0F60002515CC840704700008F
:102690002DE9F04182B0002868D00446007841F26C
:1026A0000006C007C4F2020625D0706800F00C00D6
:1026B00004281BD0706800F00C00082802D1706854
:1026C000C00313D46068002800F06881B0F5A02F23
:1026D00000F07C81B0F5803F00F07C81306820F410
:1026E00080303060306820F4802076E130688003EC
:1026F00001D56068D0B32078800718D5706810F0D5
:102700000C0F07D0706800F00C0008286ED17068BC
:10271000C0036BD43068800702D52069012825D119
:102720003068616920F0F80040EAC100306020782C
:1027300000071FD42078400732D4E56995B170684E
:1027400000F00C00082840F08F80012D0ED070683A
:10275000216A00F480328A4208D1616A00F4701064
:10276000884203D1002002B0BDE8F081012002B010
:10277000BDE8F081A069002862D00020C4F24220A8
:102780000121C0F88014FEF7C9FD0546706A800774
:1027900000F18C80FEF7C2FD401B0228F6D92AE129
:1027A000F06910F0805808D1F06940F08050F06175
:1027B000F06900F080500090009847F20007C4F2E2
:1027C00000073868C00529D4386840F48070386044
:1027D000FEF7A4FD054600BF3868C0051ED4FEF70D
:1027E0009DFD401B6428F7D905E100BF2069002842
:1027F00040F20000C4F2422000F08280012101601A
:10280000FEF78CFD054600BF306880073FF588AFB6
:10281000FEF784FD401B0228F6D9ECE0E0680028B2
:1028200000F08080052800F09780012800F0988053
:10283000306A20F001003062306A20F0040092E03B
:102840000020C4F242200021C0F88014FEF766FD8B
:10285000054600BF706A80077FF56CAFFEF75EFD2E
:10286000401B0228F6D9C6E00027C4F24227002008
:102870003866FEF753FD022D05460BD13068800106
:1028800040F1BE80FEF74AFD401B02284FF00300D6
:10289000F4D968E7306880017FF564AFFEF73EFD4C
:1028A000401B02284FF00300F4D95CE740F2080017
:1028B000C2F20000006844F6D351C1F26201A0FBED
:1028C0000101480A019000BF00BF0198411E002885
:1028D00001913FF42FAF00BF0198411E00280191E4
:1028E0003FF428AF00BF0198411E002801913FF43A
:1028F00021AF00BF0198411E00280191E4D119E7E2
:1029000000210160FEF70AFD054600BF3068800720
:102910007FF50DAFFEF702FD401B02284FF00300CC
:10292000F4D920E7306A20F001003062306A20F0EC
:1029300004003062FEF7F2FC054641F2883700BF22
:10294000306A800720D5FEF7E9FC401BB8424FF003
:102950000300F5D907E700BF306A40F00400306299
:10296000306A40F001003062FEF7D8FC054641F2C3
:10297000883700BF306A800706D4FEF7CFFC401BC3
:10298000B842F7D937E000BFB8F1000F7FF4D5AEF9
:10299000F06920F08050F061CFE600BF306820F48D
:1029A00080303060306820F480203060FEF7B6FC64
:1029B000054600BF306880037FF59DAEFEF7AEFC94
:1029C000401B64284FF00300F4D9CCE6306840F493
:1029D00080203060306840F480303060FEF79EFC2C
:1029E000054600BF306880033FF585AEFEF796FCD4
:1029F000401B6428F6D9032002B0BDE8F08100BF77
:102A0000206AB0F5803F05D17168A26821F40031D9
:102A1000114371607168626A21F4741110430843B4
:102A2000706001203866FEF779FC0446306880014A
:102A30003FF598AEFEF772FC001B02284FF0030032
:102A4000F4D990E6411E0020B0EB116F1CBF0120AD
:102A500070474EF21002CEF2000251604EF6235142
:102A6000CEF20001F0230B700721906011607047D7
:102A700010B590F83C20012A4FF0020233D080F8C4
:102A80003D200268D2F804E0D2F808C00C682EF0AD
:102A90007003234340F2FF74C4F20004A242536067
:102AA0000ADCB2F1804F13D040F20043C4F20003BD
:102AB0009A420DD011E000BF42F60043C4F2010378
:102AC0009A4205D040F60003C4F200039A4204D1B2
:102AD00049682CF08003194391600121002280F89D
:102AE0003D1080F83C20104610BD0000002804BFB7
:102AF0000120704710B5044690F83D0028B9002029
:102B000084F83C00204600F067F8022084F83D007D
:102B1000206840F2FF730268C4F2000342F6004CE2
:102B20009842C4F2010C15DCB0F1804F1AD040F28B
:102B30000041C4F20001884214D0984218DCB0F180
:102B4000804F1DD040F20041C4F20001884217D0EE
:102B50001AE000BF604505D040F60001C4F2000154
:102B60008842EAD1A16822F070020A439842E6DD69
:102B7000604505D040F60001C4F20001884203D14F
:102B8000216922F440720A43A36922F08001D4F83B
:102B900004E0E268194360450160C262C0F828E0C1
:102BA00002D16169CCF8301001214161002084F824
:102BB000461084F83E1084F83F1084F8401084F8E2
:102BC000411084F8421084F8431084F8441084F8CB
:102BD000451084F83D1010BD81B0006840F20041FE
:102BE000C4F20001884201D001B0704741F21C00DC
:102BF000C4F20200016841F002010160006800F0C7
:102C000002000090009801B07047000080B590F875
:102C10003C20012A4FF0020200F0BF8080F83D20E6
:102C2000D0F800C04FF67772DCF8083023EA0202D1
:102C3000CCF808200B683F2B1CDD5F2B20DD602BC0
:102C400050D0B3F5005F6DD0702B40F0A080D1E97B
:102C500001E3C968DCF8082043EA0E0322F47F424E
:102C600043EA01211143CCF80810DCF8081041F0C8
:102C700077018AE01F2B29DC63B3102B2AD086E072
:102C8000402B63D0502B40F08280D1F804E0C9681B
:102C9000DCF82030DCF8202022F00102CCF82020E3
:102CA000DCF8182022F0F00242EA011123F00A02B7
:102CB00042EA0E02CCF81810CCF82020DCF80810FC
:102CC00041F0570121F020015FE000BF202B01D02F
:102CD000302B5CD1DCF8081021F07001194341F071
:102CE000070152E0D1F804E0C968DCF8203023F095
:102CF0001003CCF82030DCF81830DCF8202023F466
:102D0000704322F0A00243EA013142EA0E12CCF8ED
:102D10001810CCF82020DCF8081041F0670121F0F1
:102D2000100132E0D1E901E3C968DCF8082043EA88
:102D30000E0322F47F4243EA01211143CCF808102C
:102D4000DCF8081041F480411FE000BFD1F804E036
:102D5000C968DCF82030DCF8202022F00102CCF831
:102D60002020DCF8182022F0F00242EA011123F0C2
:102D70000A0242EA0E02CCF81810CCF82020DCF847
:102D8000081041F0470121F03001CCF80810012172
:102D9000002280F83D1080F83C20104680BD0000E5
:102DA00080B586B040F200410068C4F20001002204
:102DB0008842049202D006B080BD00BF41F21800E4
:102DC000C4F20200026842F008020260006800F0EB
:102DD00008000190019801200290022003900590C4
:102DE00001F5843002A9FEF78FF906B080BD00001E
:102DF0002DE9F04390F83C30012B04BF0220BDE8E0
:102E0000F0834FEAB202032A00F2E580DFE802F025
:102E1000023A76B0036842F600461A6AC4F2010626
:102E200022F001021A621D6A1A465C6852F818CF35
:102E3000B3428E68D1F800E025F0020545EA0605A8
:102E40000CD1CE68D1E9057824F4407425F00C0546
:102E500026F004063C43354344EA08042CF073078B
:102E600047EA0E075C609F614F6809695F631D62F6
:102E70009F6947F008079F619F6927F004079F61DA
:102E8000A6E000BF036842F600461A6AC4F20106D3
:102E900022F010021A621D6A1A46D3F804C052F8D2
:102EA000184FB3428E68D1F800E025F0200545EABE
:102EB00006150FD1CE68D1E905986FF0400707EAF3
:102EC00006162CF4406725F0C00547EA890735430C
:102ED00047EA880C24F4E64444EA0E27C3F804C009
:102EE0009F614F6809699F631D629F6947F400678E
:102EF0009F619F6927F480679F6168E0036842F6DD
:102F000000461A6AC4F2010622F480721A621D6A2F
:102F10001A46D3F804C052F81CEFB3428E680C680E
:102F200025F4007545EA06250FD1CE68D1E905984C
:102F3000360240F2FF47BE432CF4405725F440656B
:102F400047EA0917354347EA081C2EF07307274361
:102F5000C3F804C0DF614F680969DF631D62DF6980
:102F600047F00807DF61DF6927F00407DF612FE022
:102F7000036842F600471A6AC4F2010722F480523D
:102F80001A621A46D3F820C05D6852F81C4FD1F877
:102F900000E08E68BB4204D14F6925F4804545EAC4
:102FA00087152CF4005747EA063724F4E64646EA2C
:102FB0000E265D60DE614E6809691E641F62DF696E
:102FC00047F40067DF61DF6927F48067DF6109028A
:102FD000136819431160002180F83C100846BDE8D1
:102FE000F0830000002804BF0120704710B504469C
:102FF00090F83D0028B9002084F83C00204600F0FD
:1030000067F8022084F83D00206840F2FF730268F0
:10301000C4F2000342F6004C9842C4F2010C15DCE5
:10302000B0F1804F1AD040F20041C4F20001884252
:1030300014D0984218DCB0F1804F1DD040F200410E
:10304000C4F20001884217D01AE000BF604505D0E5
:1030500040F60001C4F200018842EAD1A16822F0E2
:1030600070020A439842E6DD604505D040F6000153
:10307000C4F20001884203D1216922F440720A435C
:10308000A36922F08001D4F804E0E26819436045A6
:103090000160C262C0F828E002D16169CCF830104A
:1030A00001214161002084F8461084F83E1084F824
:1030B0003F1084F8401084F8411084F8421084F8DE
:1030C000431084F8441084F8451084F83D1010BD76
:1030D0007047000041B1082910D0042914BF00F145
:1030E000410200F13F020BE090F83E20012A1CBF94
:1030F00001207047022280F83E2013E000F14002D8
:103100001278012A1CBF012070470222082907D02B
:10311000042914BF80F8412080F83F2002E000BF5E
:1031200080F84020006801F01F010122036A8A40F4
:1031300023EA02010162036A42F64441C4F201013A
:103140001A43A1F14403984202620FD040F2FF718A
:10315000C4F20001884213DCB0F1804F1CD040F271
:103160000041C4F20001884216D01CE00A6842F413
:1031700000420A6040F2FF71C4F200018842EBDDB8
:1031800042F60041C4F20101884205D040F6000138
:10319000C4F20001884206D1816801F007010629C6
:1031A00004BF00207047016841F001010160002068
:1031B00070470000FEE70000FEE7000070470000D7
:1031C000704700000160704770B584B00C4605463A
:1031D000002100688DF80810642602AAD02101237E
:1031E0000096FEF7CDFC28680DF10902D0210723D7
:1031F0000096FEF755F99DF809009DF80A1006099A
:1032000006EB860600F00F0000EB46002070080970
:103210009DF80B2000EB800001F00F0101EB400056
:10322000607010099DF80C3000EB800002F00F0177
:1032300001EB4000A070180900EB800003F00F01C3
:1032400001EB40009DF80D10E070080900EB8000D4
:1032500001F00F0101EB40009DF80E1020710809EC
:1032600000EB800001F00F0101EB40009DF80F1012
:103270006071080900EB800001F00F0101EB4000D4
:10328000A07104B070BD000070470000FEF746BF9B
:1032900070470000FEE700002DE9F04184B048F6D9
:1032A0008C0040F28004C0F60C00C2F200040290D0
:1032B0004FF0640802AA20464E210423CDF8008076
:1032C000FEF75EFC42F62D164627C0F60D1603AD3E
:1032D00020464E212A4604230396CDF80080FEF7AF
:1032E0004FFC013FF4D104B0BDE8F08170B582B06D
:1032F0003220FDF7DBFE40F2800443F63C06C2F2CA
:103300000004C0F60C06642501AA20464E210423C1
:1033100001960095FEF734FC0520FDF7C7FE01AAD3
:1033200020464E21042301960095FEF729FC01203A
:10333000FDF7BCFE01AA20464E210423019600950C
:10334000FEF71EFC0A20FDF7B1FE42F62C00C0F687
:103350000C00019001AA20464E2104230095FEF79F
:103360000FFC0A20FDF7A2FE42F62C00C8F68C00E6
:10337000019001AA20464E2104230095FEF700FC8F
:103380000120FDF793FE40F60C00C8F68C0001907A
:1033900001AA20464E2104230095FEF7F1FB0120EF
:1033A000FDF784FE40F60C00C1F61C00019001AA56
:1033B00020464E2104230095FEF7E2FB0120FDF795
:1033C00075FE0120FDF772FE40F60C00C6F66C009B
:1033D000019001AA20464E2104230095FEF7D0FB60
:1033E0000120FDF763FE40F60C00CCF6CC00019006
:1033F00001AA20464E2104230095FEF7C1FB02B02E
:1034000070BD0000012805D0002808BF41F08001F0
:1034100002E000BF41F0C00180B582B021F00F0092
:10342000090100F10C0208308DF8050001F10C00D3
:103430008DF8060001F108008DF8070040F28000C9
:103440008DF804204FF0640CC2F2000001AA4E2156
:103450000423CDF800C0FEF793FB02B080BD00004E
:10346000F0B583B0017821B340F28004461E642792
:10347000C2F2000402AD00BF21F00F00090100F10B
:103480000D0209308DF8090001F10D008DF80A00D8
:1034900001F109008DF808208DF80B0020464E211F
:1034A0002A4604230097FEF76BFBB178013600290A
:1034B000E2D103B0F0BD000096B040F2100A40F235
:1034C000D406C2F2000AC2F200060AF10800314630
:1034D0000190FFF777FEFEF72FFE092000250C90E4
:1034E0004FF480300224CDE90D05CDE913404FF4AF
:1034F000E0104FF0010915900CA81195CDE90F557A
:103500000595CDE90355CDF84090CDF84890FFF7EB
:10351000BFF80F2007A931C14FF48060CDE90A053B
:1035200007A80221FEF7ACFF4FF40040049002A868
:103530000294FEF71FFF41F218000F95C4F202003B
:10354000016841F020010160016801F0200107914C
:103550000799016841F004010160016801F004016C
:1035600007910799016841F00801016000680CA902
:1035700000F008000790079804200C900020C1F28A
:103580001100CDE90D0440F20044C4F2000404F53A
:103590008230FDF7B9FD082000210022FEF736FE3B
:1035A0000820FEF723FE04F59030574647F8400FF9
:1035B0004FF46020CAF85C0038468AF84C508AF80C
:1035C0005450CAE91155CAF85090FDF7B7FA0720D0
:1035D0000E900CA93846CDE90C59FDF7E1F940F2FF
:1035E000800048F2A06804F5A041C2F20000C0F2D9
:1035F00001084FF4804BC0E90018C0E90255C0E94A
:1036000004B5C0E906550562FDF78EFE04F5A84035
:10361000C6E900083046C6E90255C6E904B5C6E960
:1036200006553562FDF780FE40F22816C2F200060C
:10363000232040F2E731C6E9004030460A95CDE943
:103640000855CDE90255CDE91155CDE90F55C6E92B
:1036500002513561B561FFF749FA4FF48050079088
:1036600007A93046FFF7D2FA3046FFF7BBFC02A9A4
:103670003046FFF7FDF96020CDE90C050CA9304676
:1036800008220E951095FFF7B3FB3046FFF788FB35
:1036900004F53051504640F8141F40F6FF710422E3
:1036A000C0E90121FEF708FD3846FDF7EFF8FFF706
:1036B0001DFE30460821FFF70DFD04E030684FF491
:1036C0007A71C16300250AF1400B0CACCDE90C59AD
:1036D0000725584621460E95FDF762F95846FDF735
:1036E0003FFC58460121FDF707FB5846FDF722FA3B
:1036F00080465846FDF79AFC4FF47A70AAF800808D
:10370000FDF7D4FC58462146CDE90C990E95FDF7FE
:1037100047F95846FDF724FC58460121FDF7ECFA1D
:103720005846FDF707FA07465846FDF77FFC642028
:10373000AAF80270FDF7BAFC0AF11400FEF7E8FCE3
:10374000BAF8020064214843FCF7DBFD46F26663E9
:103750004FF06632C4F20A03FCF7E4FC4FF6006354
:103760000022C4F2AF03FCF74FFDFCF7EEFDCAF8F0
:10377000040001980AF10C01FFF726FD0A20FDF76D
:1037800095FCFFF789FD00200021FFF73BFEDAF8EA
:103790000400FCF7C7FD0AF1200702460B46384635
:1037A0003BA100F08BF83846FFF75AFE01200021BC
:1037B000FFF728FE9AF80C509AF80D309AF80E2070
:1037C0000AF13007384635A10024009500F076F85C
:1037D0003846FFF745FEBAF8005000200A21FFF7EF
:1037E00011FE34A0B5F5166F30A188BF0846FFF76B
:1037F00037FEBAF80000B0F5166F3FF65FAFDAF8A3
:1038000004000021C4F22021FCF76DFD316800287E
:103810004FF00005CC637FF456AF6420FDF746FC03
:1038200030680A21C1636420FDF740FC3068142130
:10383000C1636420FDF73AFC30681E21C163642037
:10384000FDF734FC30682821C1636420FDF72EFCAD
:1038500030683221C1636420FDF728FC30683C21C8
:10386000C1636420FDF722FC30684621C1636420F7
:10387000FDF71CFC30685021C1636420FDF716FC85
:1038800030685A21C1636420FDF710FC1BE700BFBC
:1038900054656D703A252E326600000054696D65DE
:1038A0003A25643A25643A25640000004761733A7A
:1038B000310000004761733A300000000FB4084B3C
:1038C00010B504A902AA039800F0DEF8044602A984
:1038D000002000F070FC204610BC5DF814FB0000D6
:1038E000B741000802E008C8121F08C1002AFAD137
:1038F00070477047002001E001C1121F002AFBD170
:10390000704700002DE9FF5F82B00021DDE904303F
:10391000020DDDF840B0034318D044F61050A2F277
:10392000FF3242431514119801281FD0A5EB0B005C
:10393000401C5FEA000A4FF000064E4FDFF8389156
:10394000B046504615D5CAF1000413E01198012481
:103950004AA3012801D16FEA0B010298119AC0E92C
:103960000031C0E9024206B0BDE8F09FCBF1000093
:10397000DFE704460021404A491842EB0450CDE9F4
:10398000001012E0E00707D032463B464046494669
:10399000FCF7C8FB8046894632463B46104619462E
:1039A000FCF7C0FB06460F466410002CEAD1DDE9A7
:1039B0000401DDE90023BAF1000F06DAFCF7B2FBDF
:1039C00042464B46FCF7AEFB05E0FCF71DFC4246C9
:1039D0004B46FCF719FC04460E460022284BFCF728
:1039E0006BFE03D84FF0FF30014607E00022254B65
:1039F00020463146FCF7A0FDFCF745FE102409E007
:103A0000002C0ADB0A220023FCF7D1FC039B303296
:103A10001A55641E50EA0102F2D1641C039AC4F1E3
:103A200011031444119A012A03D0012208430DD135
:103A30000AE0084304D000204FF0110B119072E708
:103A4000A3EB0B056D1E0DE05B4504DD4FF000029E
:103A500005F1010504E003DA4FF00002A5F10105CC
:103A6000002AECD002981199C0E90231C0E9004562
:103A700079E70000000014400000F03F3000000033
:103A80000000F0430000E03F2DE9FF4F95B09B465A
:103A90008946064600250FE2252877D100242746CF
:103AA000F84A0121059400E0044316F8013F203B49
:103AB00001FA03F01042F7D130782A2811D06FF0C4
:103AC0002F033078A0F13002092A16D8059A44F065
:103AD000020402EB820203EB42021044761C0590C2
:103AE000EFE759F8042B0592002A03DA504244F418
:103AF0000054059044F00204761C30782E2816D12C
:103B000016F8010F44F004042A280DD06FF02F029C
:103B10003078A0F13003092B09D807EB870302EBBB
:103B20004303C718761CF3E759F8047B761C3078FA
:103B30006C280FD006DC4C2817D068280DD06A28D6
:103B400014D104E0742810D07A280FD10DE044F489
:103B500000140AE044F4801401E044F44014727844
:103B6000824202D104F58014761C761C30786628D7
:103B70000BD013DC582877D009DC002875D04528F5
:103B8000F6D04628F4D047281AD19DE118E06328E2
:103B900035D0642879D0652812D195E1702873D08A
:103BA00008DC6728F1D069286FD06E280DD06F2807
:103BB00006D1B5E073282CD0752875D0782874D03C
:103BC0005A46179990476D1C75E1C4F302500228BC
:103BD00009D003280DD0D9F8001004280DD00D60AD
:103BE00009F1040967E1D9F80010EA17C1E90052A8
:103BF000F6E7D9F800100D80F2E70D70F0E719F83C
:103C0000041B8DF8001000208DF80100EA46012009
:103C100003E059F804AB4FF0FF3061074FF00001AB
:103C200002D40DE008F101018846B9420FDA80455F
:103C3000F8DB1AF808100029F4D108E008F10101B6
:103C400088468142FADB1AF808100029F6D1059857
:103C50005B46A0EB080721463846179A00F094FA15
:103C6000284400EB080507E04DE029E10DE01AF8D3
:103C7000010B5A4617999047B8F10108F7D25B46F5
:103C800021463846179A13E142E00A220092C4F313
:103C900002524FF0000A022A08D059F804CB032A36
:103CA0004FEAEC710AD00DE029E02AE009F10701A2
:103CB00021F00702F2E802C1914609E00FFA8CFCFC
:103CC0004FEAEC71042A03D14FFA8CFC4FEAEC71F5
:103CD000002907DA0A460021DCF1000C61EB020141
:103CE0002D2202E0220504D52B228DF8042001228A
:103CF00003E0E20701D02022F7E7904659E00A21CD
:103D000002E010220DE010214FF0000A00910BE0BC
:103D100010224FF0000A44F004040827009203E048
:103D200008224FF0000A0092C4F30252022A05D082
:103D300059F804CB0021032A08D009E009F1070152
:103D400021F00702F2E802C1914605E01FFA8CFC5F
:103D5000042A01D10CF0FF0C4FF00008220728D5EF
:103D6000702806D0009B83F0100353EA0A0305D0A5
:103D70000EE040228DF80420012208E05CEA0102F6
:103D800006D030228DF804208DF8050002229046DE
:103D9000009B83F0080353EA0A030AD15CEA01029C
:103DA00001D1620705D530228DF804204FF00108BB
:103DB0007F1E582804D034A003900EA802900DE076
:103DC00036A0F9E753466046009AFCF7F0FA8446BD
:103DD0000398825C0298401E029002705CEA010027
:103DE000F0D1029806A9081A00F1200A600702D54E
:103DF00024F4803400E00127574502DDA7EB0A00D8
:103E000000E0002000EB0A01009005984144401AB0
:103E10000590E00306D45B462146179A059800F00A
:103E2000B3F90544002706E001A85A46C05D17997A
:103E300090476D1C7F1C4745F6DBE0030CD55B46C5
:103E40002146179A059800F09FF9054404E03020B8
:103E50005A46179990476D1C0099481E00900029FA
:103E6000F5DC08E0029802995A460078491C029154
:103E7000179990476D1CBAF10001AAF1010AF1DC13
:103E800065E100000928010030313233343536371E
:103E90003839616263646566000000003031323396
:103EA0003435363738394142434445460000000036
:103EB00000F058F90544761C307800287FF4ECAD0A
:103EC00019B02846BDE8F08F620700D4062709F133
:103ED000070222F0070CFCE80223E14603F0004849
:103EE0005FEA080C02D00FF2702C0DE05FEA045C70
:103EF00002D50FF2682C07E05FEAC47C02D00FF213
:103F0000602C01E0AFF2700C4FF0FF3823F000435B
:103F1000CDF850C065280CD006DC452809D04628CD
:103F20001DD047283DD13DE0662818D067287ED1B6
:103F300038E00021112F01DB112000E0781CCDE9D1
:103F4000000106A90EA8FFF7DDFCDDE90F010E9ABE
:103F500003910021009207F1010A04914DE04FF016
:103F600000400097CDE9011006A90EA8FFF7CAFC92
:103F7000DDE90F0203920E9B11990022DDF80CA0DF
:103F80000093049211B9791C00EB010AB7EB0A0007
:103F900004D4C0F1FF3007F1010A0490AAEB070036
:103FA000019044E0012F00DA01270021112F01DDEB
:103FB000112000E03846CDE9000106A90EA8FFF760
:103FC000A1FCDDE90F010E9A0391002104910092FA
:103FD000BA4621070CD40399514500DA8A46BAF152
:103FE000010F05DD009AAAF10101515C302908D0CA
:103FF000B84202DA10F1040F06DA0121CDE901100E
:1040000015E0AAF10101E9E7002805DC0499014463
:104010000491AAEB000102E0411C514500DD8A46F3
:104020000499401A401C01904FF000400290200774
:1040300004D40198504501DBCDF8048000208DF8B0
:104040004F0002980DF14F07B0F1004F25D02B2003
:104050000E9002984FF0020800280CDA40420290BD
:104060002D200E9007E00A210298FCF78AF93031E2
:10407000029007F8011DB8F10001A8F10108F2DC77
:1040800002980028EFD1791E0E980870307800F061
:10409000200040F0450007F8020D12A8C01B00F1F7
:1040A00007081498007800B1012000EB0A0101987C
:1040B00001EBE07105984144401A401E0590E00371
:1040C00006D45B462146179A059800F05DF8054432
:1040D0001498007818B15A46179990476D1CE00360
:1040E00024D55B462146179A059800F04DF8054403
:1040F0001CE00498002807DBDDE90301884203DDAA
:104100000098405C179901E0179930205A46904773
:10411000049805F10105401C04900198401E01908F
:1041200004D12E205A46179990476D1CBAF1000110
:10413000AAF1010ADDDC05E017F8010B5A461799D0
:1041400090476D1CB8F10001A8F10108F4DC5B4652
:104150002146179A0598ABE62D0000002B000000C1
:10416000200000002DE9F041044600251E461746B8
:10417000880404D405E039462020B0476D1C641E35
:10418000F9D52846BDE8F0812DE9F0410446002527
:104190001E469046C80301D5302700E0202788043A
:1041A00004D505E041463846B0476D1C641EF9D57C
:1041B0002846BDE8F0810A68531C0B6010707047F8
:1041C00001020000000000000000010203040607D5
:1041D00008090000000001020304020304050607A9
:1041E00008090A0B0C0D0E0F1010000010420008F9
:1041F0000000002010000000E43800082042000801
:104200001000002068050000F438000800000000DD
:1042100001000000100000000024F4000000000075
:04000005080000ED02
:00000001FF
